:100000000C9434000C94A3010C94BF010C94460092
:100010000C94DC010C94F9010C9446000C944600FD
:100020000C9446000C9431020C9446000C9446004B
:100030000C9446000C946E020C9446000C944600FE
:100040000C9423010C9446000C9446000C9446003A
:100050000C9446000C9446000C9446000C94460008
:100060000C9446000C94460011241FBECFEFD8E03C
:10007000DEBFCDBF21E0A0E0B1E001C01D92A03203
:10008000B207E1F70E946B000C949B020C940000F5
:10009000E0EBF0E0808183688083E1EBF0E0808139
:1000A00082608083089514BC85E085BD81E08093E3
:1000B0006E0015BA84E686BD0895E0E8F0E0808120
:1000C00080618083E1E8F0E08081886080838081C6
:1000D0008460808308958FEF84B987B98AB18F7D5A
:1000E0008AB996E09093680080E280936D0087B1B2
:1000F0008B7F87B924E020936C0083E08DBB81E087
:10010000809369001CBA2093B10080937000909393
:10011000B200109285001092840080E29EE49093D9
:10012000870080938600E0E8F0E080E880838081AB
:1001300082608083E1E8F0E088E1808380818260F2
:100140008083789480911201909113010197D1F7E7
:1001500080910E0190910F01059749F488B18E7F2F
:1001600088B981E090E09093090180930801809123
:100170000C0190910D014D9749F488B18D7F88B99C
:1001800081E090E09093070180930601809108013F
:1001900090910901019761F4809106019091070106
:1001A000019731F40E9448008CEC8093B30005C0A5
:1001B0000E9448008DE48093B30080911A019091D1
:1001C0001B010197F1F481E090E090931F0180936F
:1001D0001E0190931B0180931A011092B30088B105
:1001E0008E7F88B988B18D7F88B985B1877F85B9C1
:1001F00085B18B7F85B985B18F7E85B985B18F7DBE
:1002000085B98091020190910301019721F40E9428
:1002100048001092B3008091040190910501892B50
:1002200009F490CF25ED36E03093890020938800C3
:1002300084B18D7F84B984B1826084B93093010127
:10024000209300017FCF1F920F920FB60F921124BF
:100250002F933F934F935F936F937F938F939F93CE
:10026000AF93BF93EF93FF9380910A0190910B019D
:10027000019690930B0180930A018F3E9A406CF196
:1002800081E090E090930501809304019093030135
:100290008093020187B1806187B980E188B980913C
:1002A0000A0190910B019C01255F3A4026303105EF
:1002B00020F488B18F7E88B910C09C012A5F3A4033
:1002C0002630310518F480E188B907C08F5F9A4065
:1002D000069718F488B18F7E88B980910A019091B1
:1002E0000B0186389341E4F0109209011092080145
:1002F000109207011092060110920F0110920E0148
:1003000010920D0110920C0110920B0110920A0133
:100310000E9448001092B300109289001092880049
:1003200084E686BDFF91EF91BF91AF919F918F9130
:100330007F916F915F914F913F912F910F900FBEE1
:100340000F901F9018951F920F920FB60F921124C5
:100350008F939F9381E090E090931B0180931A010B
:10036000109213011092120190931F0180931E01AD
:100370009F918F910F900FBE0F901F9018951F9215
:100380000F920FB60F9211248F939F9380911201B9
:1003900090911301019749F480910E0190910F0102
:1003A000019690930F0180930E019F918F910F9072
:1003B0000FBE0F901F9018951F920F920FB60F92BD
:1003C00011248F939F9380911201909113010197B3
:1003D00049F480910C0190910D01019690930D01CB
:1003E00080930C019F918F910F900FBE0F901F90E3
:1003F00018951F920F920FB60F9211242F933F93CF
:100400004F935F936F937F938F939F93AF93BF931C
:10041000EF93FF930E9453000E94480088B18062CE
:1004200088B98DE48093B30081E090E0909313014C
:100430008093120110921B0110921A0183E088B977
:10044000FF91EF91BF91AF919F918F917F916F91AC
:100450005F914F913F912F910F900FBE0F901F9082
:1004600018951F920F920FB60F9211248F939F939E
:100470008091160190911701019690931701809336
:1004800016018A3F910519F5109217011092160175
:100490008091120190911301892B31F080911E01FE
:1004A00090911F01019779F480911A0190911B019D
:1004B000019729F498B180E1892788B908C088B1EB
:1004C0008F7E88B904C098B180E1892788B99F914F
:1004D0008F910F900FBE0F901F9018951F920F9243
:1004E0000FB60F9211242F933F934F935F936F9307
:1004F0007F938F939F93AF93BF93EF93FF930E944C
:100500005D0085E89EE1909389008093880084B126
:10051000846084B9FF91EF91BF91AF919F918F91CA
:100520007F916F915F914F913F912F910F900FBEEF
:0A0530000F901F901895F894FFCF6C
:00000001FF
